:020000040000fa
:080000000002040000000000f2
:020000040000fa
:10000800ae020000ae020000ae020000ae02000028
:10001800ae020000ae020000ae020000ae02000018
:10002800ae020000ae020000ae020000ae02000008
:10003800ae020000ae020000ae020000ae020000f8
:10004800ae020000ae020000ae020000a61c0000d6
:100058005e1c0000ae020000ae020000ae0200000e
:10006800ae020000ae020000ae020000ae020000c8
:10007800ae020000ae020000ae020000ae020000b8
:10008800ae020000ae020000ae020000ae020000a8
:10009800ae020000ae020000ae020000ae02000098
:1000a800ae020000ae020000ae020000ae02000088
:1000b800ae020000ae020000ae020000ae02000078
:1000c800ae020000ae020000ae020000ae02000068
:1000d800ae020000ae020000ae020000ae02000058
:1000e800ae020000ae020000ae020000ae02000048
:1000f800ae020000ae020000ae020000ae02000038
:10010800ae020000ae020000ae020000ae02000027
:10011800ae020000ae020000ae020000ae02000017
:10012800ae020000ae020000ae020000ae02000007
:10013800ae020000ae020000ae020000ae020000f7
:10014800ae020000ae020000ae020000ae020000e7
:10015800ae020000ae020000ae020000ae020000d7
:10016800ae020000ae020000ae020000ae020000c7
:10017800ae020000ae020000ae020000ae020000b7
:10018800ae020000ae020000ae020000ae020000a7
:10019800ae020000ae020000ae020000ae02000097
:1001a800ae020000ae020000ae020000ae02000087
:1001b800ae020000ae020000ae020000ae02000077
:1001c800ae020000ae020000ae020000ae02000067
:1001d800ae020000ae020000ae020000ae02000057
:1001e800ae020000ae020000ae020000ae02000047
:0801f800ae020000ae0200009f
:020000040000fa
:10020800ae020000ae020000ae020000ae02000026
:10021800ae020000ae020000ae020000ae02000016
:10022800ae020000ae020000ae020000ae02000006
:10023800ae020000ae020000ae020000ae020000f6
:10024800ae020000ae020000ae020000a61c0000d4
:100258005e1c0000ae020000ae020000ae0200000c
:10026800ae020000ae020000ae020000ae020000c6
:10027800ae020000ae020000ae020000ae020000b6
:10028800ae020000ae020000ae020000ae020000a6
:10029800ae020000ae020000ae020000ae02000096
:1002a800ae020000ae020000ae020000ae02000086
:1002b800ae020000ae020000ae020000ae02000076
:1002c800ae020000ae020000ae020000ae02000066
:1002d800ae020000ae020000ae020000ae02000056
:1002e800ae020000ae020000ae020000ae02000046
:1002f800ae020000ae020000ae020000ae02000036
:10030800ae020000ae020000ae020000ae02000025
:10031800ae020000ae020000ae020000ae02000015
:10032800ae020000ae020000ae020000ae02000005
:10033800ae020000ae020000ae020000ae020000f5
:10034800ae020000ae020000ae020000ae020000e5
:10035800ae020000ae020000ae020000ae020000d5
:10036800ae020000ae020000ae020000ae020000c5
:10037800ae020000ae020000ae020000ae020000b5
:10038800ae020000ae020000ae020000ae020000a5
:10039800ae020000ae020000ae020000ae02000095
:1003a800ae020000ae020000ae020000ae02000085
:1003b800ae020000ae020000ae020000ae02000075
:1003c800ae020000ae020000ae020000ae02000065
:1003d800ae020000ae020000ae020000ae02000055
:1003e800ae020000ae020000ae020000ae02000045
:0803f800ae020000ae0200009d
:020000040000fa
:10040000afb320000eff20000e01880000000000a6
:10041000000020000000e000020032000001200087
:10042000200288000c00070060ce2100010020009f
:1004300011000700000020000000e0000200320070
:100440000000020000000000381d02000000000053
:100450000040da000000fe004440a9000000200037
:100460000000e0000300320000002000a00188002e
:100470004440a80000000600910188008000780038
:100480000000eb0015003700e280400032a0b4000d
:100490009101ba00e280400032a0b4009102ba009b
:1004a000e280400032a0b4000002eb00472bde00e7
:1004b000f507b200602ce10004003a000059eb009f
:1004c0008301e900fdff3e00040037006128e100e0
:1004d000010032000082eb00040007001101ba00a5
:1004e0000200e000e8ff3a00000006003159ba00bf
:1004f0008301e9000c0032002159ba008301e900b0
:10050000080032000400e00003003a00e2804000ee
:1005100032a0b400f5ff370011d9ba008301e90019
:10052000faff3a008100e800e180400032a0b40008
:1005300000000600000000000000000000000000b5
:1005400000000000000000000000000000000000ab
:100550000000000000000000000000000040da0081
:100560000000fe00020037000204e0000b00320031
:10057000810178000002780030417800b14f5100cd
:10058000f9ff32001000200014427800934f52000f
:10059000030031000080eb00000006000000eb00cb
:1005a0000000060080007800010178003104e000be
:1005b000fdff3a000000510000000600ee874700f2
:1005c000889fbe008a9fbe008c9fbe008e1f780051
:1005d000f0b79f00010678008205780000047800db
:1005e000080578000a047800b84678000d00fb0082
:1005f0008c0007000000e000f9ff3a00d0c2b30011
:1006000080cf56000300320000c0e90080cf5600c2
:1006100002003a000a05e800010037008046780031
:100620000b00e00005003500e18f550003003200ab
:1006300040022000808f5500060034006044b8005e
:100640000c00e000700032007fb09700000e7800d0
:100650006d0037000b00e0000e003200f08f5500f7
:100660001a003a0000c3b3009a4f100017003a0076
:100670001a40900081c7b300814f50000300320040
:1006800081c5b300814f500010003a000a85e80090
:100690000e003700ab00200000c3b3009a4f1000db
:1006a0000a003a001a40900081c7b300814f500001
:1006b000040032008b00200081c5b300814f500040
:1006c00002003a000a85e8000b0120000a007800c9
:1006d000000278000400780001c3b300b0cf10001e
:1006e000fbff3200040778006044b800b4b79f00f5
:1006f0000d003700c1ae200081405000c1ef9f00c7
:100700006159b9000800be00750007004fea970064
:100710000401fb00cf91de00c8b79f00d9b79f004e
:1007200002044000838448008e0278003e00fb00f3
:1007300085bf9f00430007000b0178008000780010
:10074000c0ae20004c0007008fba97000000e00008
:10075000e8ff3a003fb29700850f550005003a00c8
:100760006044b8000c00e00027003200ffb29700a0
:10077000240037000482520010b1200060c07d00c8
:100780000000fb00000252001700330011003a0085
:100790004fe997000200fb00cf80de00000054000c
:1007a00081805c00800f5400818f5c00090039005b
:1007b0006159b90085bf9f00390007008fba9700c3
:1007c0004fb19700dfb19700820f5000838f580020
:1007d0000500320020022000b05988000084eb00a0
:1007e0008084eb0005003700d0c2b30080cf5600f4
:1007f00002003a0060041400e0841c000c00e000d9
:1008000001003200050e78000800be004f07780096
:100810004f06be004f05be004f04be00ef00b10002
:10082000000006006900e100040035006d00e100f1
:10083000030034000002b100010032000000050096
:1008400010000500800078001104b100030035009d
:100850009101b10001003c000050a0000000060022
:10086000c05980000000e0000100320000000100db
:1008700060b320000000060003003700b0cf100076
:10088000050032000201e900800178000200e0006a
:10089000faff3a000000050003007800000006009f
:1008a0006022b800060220000000d0008180d20043
:1008b0000482d2008582d2000000a0000202520011
:1008c00083825a00030031000202420083824a0000
:1008d0000000a1000603e900f3ff3a000000060053
:1008e000020ab900001bb9000200b80081004200f2
:0808f000810043000000060036
:020000040000fa
:1008f8000200fa000000eb00000f78000000eb0097
:10090800000f78000f0037001e0078007200b90051
:100918008000780000932000008040008000eb00f9
:10092800010878001e0078007200b9008000780085
:1009380000922000008040008040eb0001487800d1
:100948001e0fe8001e007800e30f5000eeff36008f
:10095800ce0907000080fa0000000600b200fa0085
:1009680068005700000f78000068ef000228ef00c9
:100978000428ef000628ef000000eb00100798009d
:100988000a0037001e00900064004000800040000c
:1009980000802000008040008000eb000108780003
:1009a8001e0090000000e800100798001e0090004c
:1009b800e30f5000f3ff36000040eb00404798007b
:1009c8004eb89700f5fe0700500798000000eb00ae
:1009d800100798000d003700ceb897001e00900051
:1009e8000080400090407800c0c2b30080cf500023
:1009f80003003a004e4090000040e800404798004d
:100a08001e0090000000e800100798009e0090006b
:100a18005e009000808f5000efff39000000eb006f
:100a280030079800fa004700070009008018eb001b
:100a38000b003700ceb897003e00900000804000c1
:100a4800904078007a0147003e0090000000410085
:100a5800014878003e0090000000e8003007980048
:100a6800be0090005e009000808f50000e003100a4
:100a7800ceb897003e00900000804000904078007b
:100a8800c0c2b30080cf500007003200ceb8970034
:100a98003e0090000080400090407800a0c3b30062
:100aa80080cf5000e3ff3a000228ef00be0090001c
:100ab8005e009000808f500034003100ceb897005f
:100ac8003e0090000080400090407800a0c3b30032
:100ad80080cf50002d003a003e0090000000e80052
:100ae800300798008e007800a10ab00003000900c2
:100af8008018eb000000eb00100798000f0037008b
:100b0800ceb897003e0090000080400090407800ea
:100b1800a20a20000e0141001e00900000004100c2
:100b2800014878001e0090000000e80010079800b7
:100b38003e0090000000e80030079800ceb897000b
:100b48003e0090000080400090407800c0c2b30092
:100b580080cf500006003200ceb897003e009000cb
:100b680000804000104078000004e000e4ff3a00f4
:100b7800a00a20000e004000a20020008000eb0028
:100b88008cfe0700000078001040880010408000ac
:100b98000000e00002003a00100020001040880029
:100ba8000000eb0010079800aa003700ceb89700a5
:100bb8003e0090000080400090407800c0c2b30022
:100bc80080cf5000ab003a003e0090000000e800e3
:100bd80030079800ceb897003e0090000080400093
:100be8009040780050c7b30080cf500036003a00dc
:100bf8003e0090000000e80030079800ceb897004b
:100c08003e009000008040009040780080c3b30010
:100c180080cf500008003a001e0090006400400099
:100c2800800040000080200000804000210020005b
:100c38000108780081003700ceb897003e00900088
:100c4800008040009040780010c3b30080cf50006f
:100c58000b003a001e009000640040008000400035
:100c6800008020000080400041002000010878003a
:100c78003e0090000000e800300798006f00370041
:100c8800ceb897003e009000008040009040780069
:100c980030c3b30080cf500068003a001e009000b7
:100ca8006400400080004000008020000080400078
:100cb80061002000010878003e0090000000e80074
:100cc800300798005d003700ceb897003e009000ce
:100cd800008040009040780030c7b30080cf5000bb
:100ce80048003a003e0090000000e80030079800f5
:100cf800ceb897003e0090000080400090407800f9
:100d080080c3b30080cf500008003a001e00900056
:100d18006400400080004000008020000080400007
:100d2800310020000108780044003700ceb8970051
:100d38003e009000008040009040780010c3b3004f
:100d480080cf50000b003a001e0090006400400065
:100d580080004000008020000080400051002000fa
:100d6800010878003e0090000000e8003007980075
:100d780032003700ceb897003e0090000080400057
:100d88009040780030c3b30080cf50000b003a0089
:100d98001e00900064004000800040000080200099
:100da8000080400071002000010878003e0090009b
:100db8000000e8003007980020003700ceb8970000
:100dc8003e009000008040009040780040c7b3008b
:100dd80080cf500019003a001e00900064004000c7
:100de80080004000008020000080400011002000aa
:100df800010878003e0090000000e80030079800e5
:100e08000e003700ceb897003e00900000804000ea
:100e18009040780060c6b30080cf500007003a00c9
:100e28001e00900064004000800040000080200008
:100e38000080400081002000010878003e009000fa
:100e48000000e800300798001e0090000000e8004d
:100e580010079800be0090005e009000808f500040
:100e6800050031001e009000e30f50004fff3600d0
:100e780001003700000000000000eb001007980098
:100e88001e009000640040008000400000802000a8
:100e98000080400010007800e40f50002a00320063
:100ea800e40f500005003e00e20f5000140032002d
:100eb800e20f50001b003e0007003700e60f50000d
:100ec80033003200e60f500028003900e70f5000c9
:100ed80038003200400037001e8fe9001e007800fd
:100ee80090007800610798006e009000da00070013
:100ef8004e4090000080fb00100798003600370035
:100f08001e8fe9001e007800900078007107980095
:100f180010408000800078007e009000f4000700f8
:100f28002d0037001e8fe9001e0078009000780021
:100f3800010f980010408000800078000e08900093
:100f480017010700240037001e8fe9001e007800f3
:100f580090007800110f9800104080008000780001
:100f68001e0890003b0107001b0037001e8fe90098
:100f78001e00780090007800210f98001040800033
:100f8800800078002e0890007501070012003700d5
:100f98001e8fe9001e00780090007800310f98003d
:100fa80010408000800078003e089000af010700e4
:100fb800090037001e8fe9001e00780090007800b5
:100fc800410f980010408000800078004e08900083
:100fd80025020700000000001e0090000000e80045
:100fe800100798004e4090008080fb001e00900083
:100ff800808f5000a2ff3e008e007800a102b00052
:101008003f0009008018eb000000eb004007980043
:101018000000eb001007980010003700fa004700a6
:101028001e0090000080400010407800804078004a
:10103800a20220000e0141004e0090000000410075
:10104800014878004e0090000000e8004007980032
:101058001e0090000000e80010079800fa00470002
:101068001e00900000804000104078000004e0005e
:10107800eaff3a004e0090000000e80040079800a0
:101088000180200091407800a20220000e0141005a
:101098004e00900000004100014878004e0090008a
:1010a8000000e80040079800104080008040780069
:1010b800a20220000e0141004e00900000004100f5
:1010c800014878004e0090000000e80040079800b2
:1010d800104080004800de0080407800a202200016
:1010e8000e0141004e0090000000410001487800c8
:1010f8004e0090000000e800400798000000eb0058
:1011080010079800270037001e009000610060005b
:101118000000e0000e003a001e009000640040004d
:10112800800040000080200000804000100078000f
:1011380000407800ef406000a20220000e0141004c
:101148004e0090000000410001487800120037006e
:101158004e00900080004700216990009e0090009a
:10116800e4804000818140000180200081804100ae
:101178009100780081417800410020008118dd004d
:101188008140710000004700216898004e009000df
:101198000000e800400798001e0090000000e800ea
:1011a8001007980000c8bf008080fb001e00900058
:1011b800808f5000d4ff3e001e0090006100600048
:1011c800004078000004e000030032004e00900068
:1011d8000000e800400798000000eb0010079800a6
:1011e800100037001e009000f00040000080200032
:1011f8000080400090407800a20220000e014100cb
:101208004e00900000004100014878004e00900018
:101218000000e800400798001e0090000000e80069
:10122800100798001e0090006101b800204080005f
:1012380031408000800f5100818f5900e9ff39004b
:10124800a00220000e004000ce0090009407070086
:101258000080fa00000006000400fa001007980059
:101268000000eb00000f7800080037001e00900017
:101278001e00400010407800804078000081200067
:101288001e004000014878001e0fe8001e00900074
:101298001e004000104078000004e000f3ff3a0010
:1012a80000c8bf000080fb006400400080004000d0
:1012b8000080200000804000110020000108780014
:1012c80010c0b30000e8b7001e0078008000eb00f3
:1012d8002040880031408800204080003140800054
:1012e80000007800104088000080fa000000060026
:1012f8000800fa0020079800310798000000eb006a
:10130800000f7800d70107001007980000c8bf0039
:101318000080fb0064004000800040000080200046
:1013280000804000210020000108780000c8bf00ac
:101338000040e80000e8b700224080003340800009
:101348003e0090008000eb000200400083804800cf
:1013580020408800314088000000eb00000f780032
:10136800090037001e0090001e0140002e0090006a
:101378001e004000904078000081200000004100dd
:10138800014878001e0fe8003e0090009e0078009b
:10139800808f5000f3ff39000080fa00000006003b
:1013a8000800fa0020079800310798000000eb00b9
:1013b800000f7800ab0107001007980000c8bf00b5
:1013c8000080fb0064004000800040000080200096
:1013d80000804000310020000108780000c8bf00ec
:1013e8000040e80000e8b700224080003340800059
:1013f8003e0090008000eb0002004000838048001f
:1014080020408800314088000000eb00000f780081
:101418000a0037001e0090001e0140002e009000b8
:101428001e004000104078008040780000812000b5
:1014380000004100014878001e0fe8003e009000bf
:101448009e007800808f5000f2ff39000080fa007b
:10145800000006000c00fa004007980051079800a9
:101468000000eb00000f78007e01070010079800cd
:1014780000c8bf000080fb006400400080004000fe
:101488000080200000804000410020000108780012
:1014980000c8bf000040e80000e8b7002240800014
:1014a800334080005e009000000040008000eb00a8
:1014b80002004000838048002040880031408800b6
:1014c8000000eb00000f78005e0090000000400074
:1014d800200798001c0037001e0078000000d1008b
:1014e800300798001e0090001e0140003e0090004a
:1014f80000004000ce0090000080400010007800fe
:1015080080407800008120000000410001487800f8
:101518001e0fe8001e0090001e0140003e009000d3
:1015280000004000ce0090000080400010007800cd
:101538004800de0080407800008120000000410063
:10154800014878001e0fe8002e0090009e007800e9
:10155800808f5000e0ff39000080fa00000006008c
:101568000c00fa0040079800510798000000eb00b3
:10157800000f78003b0107001007980000c8bf0063
:101588000080fb00640040008000400000802000d4
:1015980000804000510020000108780000c8bf000a
:1015a8000040e80000e8b700224080003340800097
:1015b8005e009000000040008000eb000200400048
:1015c8008380480020408800314088000000eb00fc
:1015d800000f78005e00900000004000200798008f
:1015e8001c0037001e0078000000d100300798006a
:1015f8001e0090001e0140003e00900000004000c8
:10160800ce009000008040001000780080407800f4
:101618000081200000004100014878001e0fe8000a
:101628001e0090001e0140003e0090000000400097
:10163800ce00900000804000100078004800de00d6
:1016480080407800008120000000410001487800b7
:101658001e0fe8002e0090009e007800808f50003a
:10166800e0ff39000080fa00000006000c00fa00d4
:1016780040079800510798000000eb00000f780021
:10168800f80007001007980000c8bf000080fb00a2
:10169800640040008000400000802000008040007e
:1016a800610020000108780000c8bf000040e80081
:1016b80000e8b70022408000334080005e009000c0
:1016c8004200dd008000eb000200400083804800fb
:1016d80020408800314088000000eb00000f7800af
:1016e8005e0090004200dd00200798005800370097
:1016f8001e0078004200de00300798001e009000af
:101708001e0140003e0090004200dd00ce00900027
:10171800008040001000be0080407800008120005a
:1017280000004100014878001e0fe8001e009000ec
:101738001e0240003e0090004200dd00ce009000f6
:10174800008040001001be0000f02f0001002000c2
:101758008202780003017800800178000100780097
:1017680083826200000061008000eb00c000dd00a1
:10177800000020000001be006128b80000017100cf
:1017880081817100c81add004810de0000807200f7
:10179800c818de0080407800008120000000420068
:1017a800014878001e0fe8001e0090001e0240004d
:1017b8003e0090004200dd00ce0090000080400016
:1017c8001001be0000002000f10f20008202780006
:1017d80003017800800178000100780083826200ac
:1017e800000061008000eb00c000dd000000200068
:1017f8000001be006128b8000001710081817100fc
:101808004018de00010020008040780000812000a0
:1018180000004200014878001e0fe8001e009000fa
:101828001e0140003e0090004200dd00ce00900006
:10183800008040001000be004808de0080407800ac
:101848000081200000004100014878001e0fe800d8
:101858002e0090009e007800808f5000a4ff390071
:101868000080fa00000006000c00fa00400798000b
:10187800510798000000eb00000f7800790007007e
:101888001007980000c8bf000080fb0064004000fb
:10189800800040000080200000804000710020008f
:1018a8000108780000c8bf000040e80000e8b70061
:1018b80022408000334080005e0090004200dd003e
:1018c8008000eb0002004000838048002040880030
:1018d800314088000000eb00000f78005e009000a7
:1018e8004200dd0020079800580037001e007800ed
:1018f8004200de00300798001e0090001e014000e4
:101908003e0090004200dd00ce00900000804000c4
:101918001000be00804078000081200000004100d7
:10192800014878001e0fe8001e0090001e024000cb
:101938003e0090004200dd00ce0090000080400094
:101948001001be0000f02f00010020008202780084
:10195800030178008001780001007800838262002a
:10196800000061008000eb00c000dd0000002000e6
:101978000001be006128b80000017100818171007a
:10198800c81add004810de0000807200c898de002a
:101998008040780000812000000042000148780063
:1019a8001e0fe8001e0090001e0240003e0090003e
:1019b8004200dd00ce009000008040001001be0013
:1019c80000002000f10f2000820278000301780057
:1019d80080017800010078008382620000006100c5
:1019e8008000eb00c000dd00000020000001be0008
:1019f8006128b80000017100818171004098de0003
:101a0800cf80de0080407800008120000000420086
:101a1800014878001e0fe8001e0090001e014000db
:101a28003e0090004200dd00ce00900000804000a3
:101a38001000be004808de008040780000812000c9
:101a480000004100014878001e0fe8002e009000b9
:101a58009e007800808f5000a4ff39000080fa00b3
:101a6800000006000600fa000000eb00000f7800f6
:101a78000000eb00100798000000eb00000f780052
:101a88003a0037000000eb00200798009e0078001d
:101a980064804000800040000080200000804000fa
:101aa800100078000000e000100032009e0078006e
:101ab80064804000800040000080200000804000da
:101ac80010007800e20f5000080032009e007800f5
:101ad80064804000800040000080200000804000ba
:101ae80010007800e30f500003003a0010002000b7
:101af80020079800150037009e0078006480400099
:101b08008000400000802000008040001000780025
:101b1800e40f5000080032009e0078006480400006
:101b28008000400000802000008040001000780005
:101b3800e50f500003003a0020002000200798001d
:101b48000200370040002000200798001140800064
:101b58002e0090000088b900000078009e009000d8
:101b680000804000100798001e0fe80000c8bf0062
:101b78000080fb009e0f5000c2ff3e001e00900038
:101b88000080fa00000006000a00fa0030079800fa
:101b9800410798000000eb00100798000000eb00d8
:101ba800000f78000d0037001e0078007200b900a1
:101bb80000007800f0004000009220000080400003
:101bc800100078000000e00003003a001000200038
:101bd80010079800040037001e0fe8001e00780068
:101be800e30f5000f0ff36001e009000e10f500098
:101bf8001f003a001e0078007200b90080007800cb
:101c08000093200000804000ce009000010878007a
:101c18000000eb00200798000f003700be0090007e
:101c28002e00900000804000104178001e007800cf
:101c38007200b900800078002e009000808040007b
:101c48000092200000804000024878002e0090009a
:101c58000000e80020079800be0090002e009000c9
:101c680000804000104078000004e000ebff3a00dc
:101c78000080fa00000006000400fa00100798002f
:101c88000000eb00000f7800190037001e007800f4
:101c98007200b90000007800f000400000922000b7
:101ca80000804000900078001e009000808f500057
:101cb8000e003a001e0078007200b900800078001b
:101cc80000932000008040008000eb0001087800ad
:101cd8001e0078007200b900800078000092200091
:101ce800008040008040eb00014878001e0fe800ab
:101cf8001e007800e30f5000e4ff36000080fa0071
:101d0800000006003600fa00660047003f0507009d
:101d18000000e000f70032008e0078006102b00099
:101d2800070009008018eb000000eb00000f7800a6
:101d38000000eb0010079800090037006600470014
:101d48001e004000104078008040780060022000ab
:101d58000e0040001e004000014878001e0fe800f9
:101d6800660047001e004000104078000004e000b4
:101d7800f2ff3a001e00e80010079800e60047004e
:101d88001e00900000804000104078006f40600006
:101d980090e8b7001e0090000000e80010079800c7
:101da800e60047001e0090000080400010407800c8
:101db8000080fb00904488001e0090000000e800ae
:101dc8001007980091448000660147001e009000ab
:101dd80000004100104078000080fb004800dd0052
:101de80000804000904488001e0090000000e80039
:101df800100798009428ef009628ef000000eb00e9
:101e0800000f7800780037001e017800610061003b
:101e18000000e0000e003a00e60047001e009000b7
:101e280000804000104078000080fb006f006000d8
:101e3800800078001e017800640041000001400025
:101e480000892000000041000108780011003700d7
:101e5800e60047001e009000008040001040780017
:101e68000080fb004400de00004078008080fb001a
:101e78001e01780064004100000140000089200034
:101e880000004100010878001e0090000000e800f2
:101e9800100798009e007800648040008000400091
:101ea800008920000080400010007800e10f5000f9
:101eb800100032001e0178006400410080004000dc
:101ec800008920000080400010007800e20f5000d8
:101ed800080032009e0078006480400080004000c6
:101ee800008920000080400010007800e30f5000b7
:101ef80009003a00a2448000b34480009044800066
:101f08008000eb000200400083804800a044880065
:101f1800b1448800330037001e0178006400410096
:101f280080004000008920000080400010007800f8
:101f3800e40f5000080032009e00780064804000e2
:101f480080004000008920000080400010007800d8
:101f5800e50f50000a003a00a2448000b344800014
:101f680090448000000040008000eb000200400028
:101f780083804800a0448800b144880019003700d5
:101f88001e017800640041008000400000892000a4
:101f98000080400010007800e60f50000800320072
:101fa8009e00780064804000800040000089200086
:101fb8000080400010007800e70f500009003a0048
:101fc800a2448000b3448000904480004200dd00b9
:101fd8008000eb000200400083804800a044880095
:101fe800b14488001e0fe80090c8bf000080fb00c5
:101ff8009e0f500084ff3e001e00780061006000c4
:10200800004078000004e000030032001e00900049
:102018000000e80010079800e60047001e00900046
:1020280000804000200798000000eb00000f7800b7
:10203800070037002e0090001e00400090407800f6
:10204800008a20001e004000014878001e0fe800aa
:102058001e0078006101b800a0448000b1448000ef
:10206800800f5100818f5900f2ff39000000eb000a
:10207800000f78001c0037001e0078007200b900bd
:1020880080007800009220008080400060022000dc
:102098000e00400031f907000000e00011003a008e
:1020a8001e0078007200b90000007800f0004000bf
:1020b8000092200000804000100078000000e0003e
:1020c800080032001e0078007200b9000000780095
:1020d800f0004000009220000080400010007800ce
:1020e800000001001e0fe8001e007800e30f5000fa
:1020f800e1ff36000080fa00000006001e00fa002a
:10210800500f9800610f98005e089000004078001a
:102118008a010700100798005e08900064004000dc
:1021280080004000008920000080400010007800f6
:10213800e40f500052003200e40f500005003e004a
:10214800e20f500020003200e20f500035003e0040
:1021580007003700e60f5000ab003200e60f5000d2
:1021680078003900e70f50000c0132007001370089
:10217800ee089000210798000000eb00000f78009f
:10218800090037002e0090001e0040009e007800d5
:102198007081400001892000810041009140780051
:1021a800014878001e0fe8001e0078006101b800a1
:1021b800a0448000b1448000800f5100818f5900f5
:1021c800f0ff39005a013700ee08900031079800f7
:1021d8000000eb00000f78000a0037003e00900076
:1021e8001e0040009e0090009e80400070814000cc
:1021f8000189200081004100914078000148780061
:102208001e0fe8001e0078006101b800a04480009d
:10221800b1448000800f5100818f5900efff3900d1
:1022280043013700ee089000410798000000eb00da
:10223800000f78000a0037004e0090001e00400092
:102248009e0090009e80400070814000018920001f
:102258008100410091407800014878001e0fe80095
:102268001e0078006101b800a0448000b1448000dd
:10227800800f5100818f5900efff39002c01370082
:10228800ee089000510798000000eb00000f78005e
:10229800240037001e0078000000d1006007980075
:1022a8006e00900000004000de00900000804000ba
:1022b8009e0090009e8040007081400001892000af
:1022c80081004100914078008180fb00010878007e
:1022d8001e0fe8006e00900000004000de00900035
:1022e800808040006e009000000040005e01900079
:1022f80000004100100178001e0090001e00400000
:10230800f001400000892000008041001040780062
:102318000080fb004800dd000200700080087800a3
:102328001e0fe8001e0078006101b800a04480007c
:10233800b1448000800f5100818f5900d5ff3900ca
:10234800fb003700ee089000710798000000eb00d2
:10235800000f7800240037001e0078000000d1002c
:10236800000f98000e08900000004000fe0090004a
:10237800008040009e0090009e80400070814000d8
:102388000189200081004100914078008180fb0094
:10239800010878001e0fe8000e08900000004000b9
:1023a800fe009000808040000e0890000000400071
:1023b8007e01900000004100100178001e0090008e
:1023c8001e004000f001400000892000008041000c
:1023d800104078000080fb004800dd00020070001b
:1023e800800878001e0fe8001e0078006101b80020
:1023f800a0448000b1448000800f5100818f5900b3
:10240800d5ff3900ca003700ee089000110f980078
:102418000000eb00000f7800580037001e0078001d
:102428004200de00200f98002e0890004200dd00d8
:102438009e089000008140001e0090001e00400091
:10244800f000400000892000008040001040780023
:102458000080fb008000eb000089be001e0fe80032
:102468002e0890004200dd009e0890000083400086
:102478002e0890004200dd009e0890000080400079
:102488001001be001e0090001e004000f000400039
:102498000089200000804000104078000082fb0086
:1024a8008002eb004828dd00c820de0081007000b3
:1024b8004820dd000000710081807100008bbe00a3
:1024c8001e0fe8002e0890004200dd009e089000d4
:1024d800008240002e0890004200dd009e08900017
:1024e800008040001001be001e0090001e00400049
:1024f800f000400000892000008040001040780073
:102508000080fb008000eb00c000dd000000200020
:102518000000710081807100008abe001e0fe80073
:102528002e0890004200dd009e08900000824000c6
:102538002e0890004200dd009e08900000804000b8
:102548001001be001e0090001e004000f000400078
:102558000089200000804000104078000080fb00c7
:102568008000eb00c800dd000000200000007100c2
:1025780081807100008abe001e0fe8001e007800ee
:102588006101b800a0448000b1448000800f510070
:10259800818f5900a1ff390065003700ee089000cf
:1025a800310f98000000eb00000f7800580037004a
:1025b8001e0078004200de00400f98004e08900090
:1025c8004200dd00be089000008140001e0090001f
:1025d8001e004000f00040000089200000804000fc
:1025e800104078000080fb008000eb000089be00ee
:1025f8001e0fe8004e0890004200dd00be08900063
:10260800008340004e0890004200dd00be089000a4
:10261800008040001001be001e0090001e00400017
:10262800f000400000892000008040001040780041
:102638000082fb008002eb004828dd00c820de0095
:10264800810070004820dd00000071008180710069
:10265800008bbe001e0fe8004e0890004200dd000f
:10266800be089000008240004e0890004200dd0045
:10267800be089000008040001001be001e009000bf
:102688001e004000f000400000892000008040004b
:10269800104078000080fb008000eb00c000dd00e7
:1026a800000020000000710081807100008abe00d7
:1026b8001e0fe8004e0890004200dd00be089000a2
:1026c800008240004e0890004200dd00be089000e5
:1026d800008040001001be001e0090001e00400057
:1026e800f000400000892000008040001040780081
:1026f8000080fb008000eb00c800dd000000200027
:102708000000710081807100008abe001e0fe80081
:102718001e0078006101b800a0448000b144800028
:10272800800f5100818f5900a1ff3900000000007f
:10273800904480000080fa00000006000800fa00bb
:10274800604798000000eb00000f78000000eb00e5
:10275800100798000000eb00000f78003a003700df
:102768000000eb00200798009e007800648040007d
:1027780080004000008920000080400010007800a0
:102788000000e000100032009e00780064804000e5
:102798008000400000892000008040001000780080
:1027a800e20f5000080032009e007800648040006c
:1027b8008000400000892000008040001000780060
:1027c800e30f500003003a00100020002007980093
:1027d800150037009e0078006480400080004000ab
:1027e800008920000080400010007800e40f5000ad
:1027f800080032009e00780064804000800040009d
:10280800008920000080400010007800e50f50008b
:1028180003003a002000200020079800020037003b
:102828004000200020079800914480002e0090006e
:102838000088b900000078009e00900000804000e9
:10284800100798001e0fe8006e4090000080fb0003
:102858009e0f5000c2ff3e001e0090000080fa004c
:10286800000006000200fa00000f78001e00780041
:10287800690307000080fa00000006000200fa0061
:10288800000f78001e007800690307000080fa0036
:10289800000006000200fa00000f78001e00780011
:1028a800690307000080fa00000006000200fa0031
:1028b800000f78001e007800690307000080fa0006
:1028c800000006000200fa00000f78001e007800e1
:1028d800690307000080fa00000006001400fa00ef
:1028e8006007980071079800020f98002357980016
:1028f8000040eb00004f78001000200010079800ff
:10290800090037009e0090000e089000808f50004c
:1029180002003a0010c0b300004f78001e0090007b
:1029280000004000100798009e009000f0ff230070
:10293800808f5000f3ff36001e4078000004e0004e
:1029480001003a00ffff37002e509000e84f50007a
:1029580015003a00fe009000310798006e009000c4
:10296800be009000510098000000eb00200798007e
:1029780008003700be0090002e0090000080400044
:102988008040eb00014878002e0090000000e8002d
:1029980020079800ae0090000e089000808f50002d
:1029a800f4ff3900140037002e509000f04f50000b
:1029b80006003a00fe009000410798006e00900063
:1029c800ce009000510098000b003700ae509000e8
:1029d80000c2b30080cf500006003a00fe0090000d
:1029e800510798006e009000de009000510098009a
:1029f80001003700ffff37006e009000fe009000d6
:102a0800510098006e0090008e0890000108780030
:102a18006e009000ae509000214098006e0090002b
:102a28008000eb00210098006e0090008000eb0011
:102a3800310098006e0090001100200041009800bd
:102a48006e009000400090000080fa000000060030
:102a58000400fa00100798001e009000a0009000e3
:102a68001e00900030009000808f500003003a0054
:102a780010002000000f7800100037001e009000a2
:102a8800200090008000e8001e00900010007800f0
:102a98000080ea00808060001e00900030009000f6
:102aa800808f500003003a0020002000000f7800bb
:102ab800020037000000eb00000f78001e007800cd
:102ac8000080fa00000006000400fa0010079800d1
:102ad8000000eb00000f78001e00900040009000fe
:102ae800e10f500004003a001e009000100078002a
:102af800000f78001d0037001e0090004000900075
:102b0800e20f500003003a000000eb00000f7800cd
:102b1800160037001e009000a00090001e009000d4
:102b280030009000808f50000a0036001e00900090
:102b3800900078001e0090002000900080805000d7
:102b48001e0090003000900000804000000f7800c8
:102b5800060037001e009000b00090001e00900094
:102b68002000900000805000000f78001e007800c0
:102b7800cf80de000080fa00000006000400fa00a2
:102b8800100798000000eb00000f78001e0090006e
:102b980040009000e10f500003003a000000eb00f5
:102ba800000f78001e0037001e00900040009000c3
:102bb800e20f500004003a001e0090001000780058
:102bc800000f7800160037001e009000b00090003b
:102bd8001e00900020009000808f50000a003600f0
:102be8001e009000900078001e00900030009000b9
:102bf800808050001e00900020009000008040005f
:102c0800000f7800060037001e009000a00090001a
:102c18001e0090003000900000805000000f7800e7
:102c28001e007800cf80de000080fa000000060059
:102c38000600fa0010079800414798001e0090000f
:102c480040009000e20f5000220032001e00900069
:102c580050009000000f78001e00900020009000a7
:102c68001e004000ce409000014878001e009000f1
:102c7800200090008000e8001e00900021009800cd
:102c88001e009000a00090001e0090001000780028
:102c98000080ea00808060001e00900021009800fb
:102ca8001e009000a00090001e00900030009000d0
:102cb800808f500004003a001e0090002100200080
:102cc80041009800030037001e0090008000eb00d0
:102cd800410098001e009000400090000080fa001b
:102ce800000006000600fa00100798002107980067
:102cf8001e00900040009000e20f500023003200b8
:102d08001e00900050009000000f78001e009000f8
:102d180020009000000040001e004000ae0090001f
:102d2800010878001e009000200090008000e80054
:102d38001e009000210098001e009000a000900046
:102d48001e009000100078000080ea00808060007b
:102d58001e009000210098001e009000a000900026
:102d68001e00900030009000808f500004003a0050
:102d78001e00900021002000410098000300370049
:102d88001e0090008000eb00410098001e0090009b
:102d9800400090000080fa00000006000800fa00d9
:102da8001007980022079800330798001e0090002b
:102db80040009000e20f5000240032001e009000f6
:102dc80050009000000f78001e0090002000900036
:102dd8004200dd001e0040002e019000be01900060
:102de8000288be001e009000200090008000e800cd
:102df8001e009000210098001e009000a000900086
:102e08001e009000100078000080ea0080806000ba
:102e18001e009000210098001e009000a000900065
:102e28001e00900030009000808f500004003a008f
:102e38001e00900021002000410098000300370088
:102e48001e0090008000eb00410098001e009000da
:102e5800400090000080fa00000006000600fa001a
:102e6800200798000040eb00004f78002e009000eb
:102e780040009000e10f5000220032002e00900028
:102e880050009000100798002e009000300090002d
:102e98009e00900000804000104f78002e009000a7
:102ea800300090008000e8002e009000310098006b
:102eb8002e009000b00090002e00900010007800c6
:102ec8000080ea00808060002e00900031009800a9
:102ed8002e009000a00090002e009000300090007e
:102ee800808f500004003a002e009000110020004e
:102ef80041009800030037002e0090008000eb008e
:102f0800410098001e4078000080fa00000006008a
:102f18000600fa00200798000040eb00004f7800f8
:102f28002e00900040009000e10f50002400320075
:102f38002e00900050009000100798002e0090007e
:102f480030009000000040009e009000008040008b
:102f580010007800004f78002e009000300090009c
:102f68008000e8002e009000310098002e009000ac
:102f7800b00090002e009000100078000080ea0059
:102f8800808060002e009000310098002e00900094
:102f9800a00090002e00900030009000808f50001c
:102fa80004003a002e009000110020004100980013
:102fb800030037002e0090008000eb0041009800cd
:102fc8001e80fb000080fa00000006000600fa00e0
:102fd800200798000040eb00004f78002e0090007a
:102fe80040009000e10f5000240032002e009000b5
:102ff80050009000100798002e00900030009000bc
:103008004200dd009e009000008040001000be00dd
:10301800004f78002e009000300090008000e800fb
:103028002e009000310098002e009000b000900013
:103038002e009000100078000080ea008080600078
:103048002e009000310098002e009000a000900003
:103058002e00900030009000808f500004003a004d
:103068002e00900011002000410098000300370056
:103078002e0090008000eb00410098001e80fb00ad
:103088008000eb000080fa00000006000000fa0053
:1030980010578000000001000080fa0000000600c0
:1030a8000c00fa0040079800510798000000eb0058
:1030b800000f7800de0090004e0090002901070004
:1030c800100798001e009000404798001e009000ce
:1030d8004800de005047980000000000305780008c
:1030e800000001000000e000fcff320070cfb300d8
:1030f8006047980052578000660047001100200082
:1031080002000100060037001e007800ce00900083
:1031180000804000104078001e0fe80015000700ee
:103128009e0078005e009000808f5000f6ff390006
:103138004e4090000f0007005e4090000d00070011
:103148000000000030578000000001000000e0008f
:10315800fcff3200f0c7b300604798005257800068
:103168006600470011002000020001000080fa00fc
:10317800000006000400fa00204798000000000044
:103188003057800000000100e10f5000fcff3600be
:103198002e409000e94f400007003200ae409000fa
:1031a800f0c7b30080cf5000030032002e409000db
:1031b800ea4f40000f003a0060cfb300004f78009c
:1031c800ae40900000c2b30000c0680010479800ed
:1031d80052578000110020000e0078000200010004
:1031e800525780000e00e800110020000200010084
:1031f80004003700525780000e80e80011002000bc
:10320800020001000080fa00000006001200fa0027
:10321800000f98000000eb00000f78000000eb00a2
:10322800100798000000eb00200798000000eb0052
:1032380030079800205780000000010050079800d0
:10324800425780000157800000aa200000804000fb
:10325800de00900002000100015780005e0090002f
:10326800008040000057880011003700be00900021
:1032780000aa20000080400010407800e94f40007c
:1032880003003a00be009000010f78000c003700e0
:10329800be00900000aa2000008040008040eb00a3
:1032a800014878003e0090000000e80030079800d0
:1032b800be009000f0032000808f5000ebff360026
:1032c8009e007800310798000d003700be0090007e
:1032d80000aa20000080400090407800f0c7b300aa
:1032e80080cf500003003a00be00900011079800fc
:1032f800070037003e0090000000e8003007980003
:10330800be009000f0032000808f5000efff3600d1
:10331800a0cabf00e94f4000030032001e00780039
:103328000000e0008c0032001e0090000000e00069
:10333800890032000000eb00300798009e007800fa
:1033480041079800ce00900000aa200000804000ad
:103358008040eb00014878004e0090000000e80033
:103368004007980022003700ce00900000aa2000f5
:103378000080400010407800ea4f40000e003a00fc
:103388004e0090000000e800400798008e0890006a
:103398003e009000008040004e01900001aa2000ed
:1033a800810041001141780001c2b30081406900e9
:1033b80001487800080037008e0890003e00900011
:1033c800008040004e01900001aa200081004100c9
:1033d80091407800014878003e0090000000e80025
:1033e800300798004e0090000000e8004007980061
:1033f800ce0090001e009000808f5000daff390048
:10340800be009000210798009e00900031079800a8
:103418000000eb00000f780011003700be0090009c
:1034280000aa20000080400010407800e94f4000ca
:1034380003003a00be009000010f78000c0037002e
:10344800be00900000aa2000008040008040eb00f1
:10345800014878003e0090000000e800300798001e
:10346800be009000f0032000808f5000ebff360074
:10347800e02aef001e0078000000e0001a00320089
:103488000000eb0030079800120037003e00900063
:103498009e00400000aa2000008040009040780074
:1034a8003e01900000aa2000000041000148780079
:1034b8003e0090009e00400000aa200000804000ce
:1034c8008040eb00014878003e0090000000e800d2
:1034d800300798003e0090009e004000f003200056
:1034e800808f5000e9ff36002e0090000080e90030
:1034f8008e08900000804000104078008080fb001b
:103508002e0090000000e9000e0990000000410024
:10351800104078000080fb004800dd0001007000ca
:10352800600798002e0090000080e90020079800ae
:10353800ae0090000e0890000a000700700798007f
:10354800fe0090006e009000808f50000200320054
:103558000000eb00200798002e0090000080fa0081
:10356800000006000c00fa00400798005107980078
:10357800f00f2000000f7800f00f200010079800cf
:103588000000eb00200798000c003700ce009000e8
:103598002e00900000804000104078000080fb0062
:1035a8001e0f40001e0090001e00400010079800eb
:1035b8002e0090000000e80020079800ae00900060
:1035c8005e009000808f5000f0ff3900f00f20005f
:1035d8009e0060001e0078004800de00008f40005a
:1035e8009e009000f00f2000808060001e00900078
:1035f8004800de0000804000100798001e00900080
:103608004800dd001e007000300798003e00900062
:103618000080fa00000006000200fa00000f78009f
:103628009e007800115788000080fa00000006000c
:103638000200fa00000f78009e00780021578800e9
:103648000080fa00000006000200fa00000f78006f
:103658009e007800315788000080fa0000000600bc
:103668000200fa00000f78009e0078004157880099
:103678000080fa00000006000200fa00000f78003f
:103688009e007800515788000080fa00000006006c
:103698000000fa00e2e4a900102780004700de00dd
:1036a800614060000080fb00610060004200dd00b6
:1036b80012278000b1ff2f00810061000100700017
:1036c8001027880083c0b300021020000198200052
:1036d8008096200081fc070083c0b300020220000e
:1036e80001a82000409720007cfc0700c0002000b3
:1036f800401188002022ef002222ef008560a900f7
:10370800200480004b00de00614060000080fb0068
:10371800610060004c00dd0022048000f1ff2e00f3
:103728008100610001007000200488009560a800f5
:10373800a00480004b00de00614060000080fb00b8
:10374800610060004c00dd00a2048000f1ff2e0043
:103758008100610001007000a004880021e2a80037
:103768002342a8000080fa00000006000c00fa00be
:10377800881f780030079800420798005307980080
:103788006000b800008fbe00be00900021079800be
:103798000a0037001e007800ae0090000084400048
:1037a80040972000adfd0700004c78001200200073
:1037b800030020001e0f41005e9749004e00900054
:1037c800de0090001e01be00800f5100818f59005d
:1037d800f0ff39004f0478000080fa00000006006e
:1037e8000c00fa0030079800420798005307980029
:1037f8006000b800008fbe00be009000210798004e
:103808000f00370000000000240007000000e0005f
:10381800fdff32001e007800ae00900000804000de
:1038280010407800804078008096200000fd070056
:1038380012002000030020001e0f41005e9749007f
:103848004e009000de0090001e01be00800f510067
:10385800818f5900ebff3900111180000010200002
:10386800008060000000e000040032008096200024
:103878007afd07000080fb00201188000080fa0014
:10388800000006000000fa0040972000bbfc07007b
:10389800000078000080fa00000006000000fa002e
:1038a8008096200088fc0700000078000080fa005d
:1038b800000006003600f800809fbe00829fbe0010
:1038c800849fbe00869fbe003400f80000002000e0
:1038d800a00188000000fa00809620005cfc070028
:1038e800e10f50000e0032000400370080962000df
:1038f8005afd07000080fb002011880080962000f8
:1039080053fc0700e10f5000050032001111800040
:1039180000202000008060000000e000f3ff32007b
:103928008580a9000080fa003400f9004f03be002a
:103938004f02be004f01be004f00be003600f90026
:10394800004006003600f800809fbe00829fbe003f
:10395800849fbe00869fbe003400f800000020004f
:10396800a00188000000fa0005003700301180002f
:10397800004078008040780040972000acfc0700a9
:103988004097200032fc0700e20f5000040032008c
:1039980010118000610060000000e000f3ff3a00b1
:1039a8008560a9000080fa003400f9004f03be00ca
:1039b8004f02be004f01be004f00be003600f900a6
:0439c80000400600b5
:020000040000fa
:1039cc00a00a00004c0000000000000000080000ed
:1039dc0068010000000000006809000038010000c8
:1039ec0000000000ec0a00004a0000000200000089
:1039fc0030313200333435003637380039616200eb
:103a0c006364650066676800696a6b006c6d6e00c4
:103a1c006f707100727374007576770078797a0024
:103a2c0000000000211511000e0d0c000b0b0a00fc
:103a3c000a09090009090900080808000808080013
:103a4c000807070007070700070707000707070015
:103a5c0007070000360b0000040000000000000007
:043a6c000000000056
:020000040000fa
:103a70000000fa0001000700ffff37000000fa0015
:103a8000c0b4210079fb070060c421007dfb070062
:103a900020c5210081fb0700a0bb210085fb07009a
:103aa00040bf210089fb07000080fa0000000600eb
:00000001FF
